{
  "_format": "hh-sol-artifact-1",
  "contractName": "TicketSale",
  "sourceName": "contracts/TicketSale.sol",
  "abi": [
    {
      "anonymous": false,
      "inputs": [
        {
          "indexed": false,
          "internalType": "uint256",
          "name": "ticketId",
          "type": "uint256"
        },
        {
          "indexed": false,
          "internalType": "address",
          "name": "buyer",
          "type": "address"
        },
        {
          "indexed": false,
          "internalType": "uint256",
          "name": "acceptedPrice",
          "type": "uint256"
        }
      ],
      "name": "OfferAccepted",
      "type": "event"
    },
    {
      "anonymous": false,
      "inputs": [
        {
          "indexed": false,
          "internalType": "uint256",
          "name": "ticketId",
          "type": "uint256"
        },
        {
          "indexed": false,
          "internalType": "address",
          "name": "buyer",
          "type": "address"
        },
        {
          "indexed": false,
          "internalType": "uint256",
          "name": "offerPrice",
          "type": "uint256"
        }
      ],
      "name": "OfferMade",
      "type": "event"
    },
    {
      "anonymous": false,
      "inputs": [
        {
          "indexed": false,
          "internalType": "uint256",
          "name": "id",
          "type": "uint256"
        },
        {
          "indexed": false,
          "internalType": "address",
          "name": "buyer",
          "type": "address"
        },
        {
          "indexed": false,
          "internalType": "uint256",
          "name": "amount",
          "type": "uint256"
        }
      ],
      "name": "TicketBought",
      "type": "event"
    },
    {
      "anonymous": false,
      "inputs": [
        {
          "indexed": false,
          "internalType": "uint256",
          "name": "id",
          "type": "uint256"
        },
        {
          "indexed": false,
          "internalType": "string",
          "name": "name",
          "type": "string"
        },
        {
          "indexed": false,
          "internalType": "string",
          "name": "location",
          "type": "string"
        },
        {
          "indexed": false,
          "internalType": "uint256",
          "name": "price",
          "type": "uint256"
        },
        {
          "indexed": false,
          "internalType": "uint256",
          "name": "quantity",
          "type": "uint256"
        },
        {
          "indexed": false,
          "internalType": "bool",
          "name": "isNegotiable",
          "type": "bool"
        },
        {
          "indexed": false,
          "internalType": "address",
          "name": "seller",
          "type": "address"
        }
      ],
      "name": "TicketCreated",
      "type": "event"
    },
    {
      "inputs": [
        {
          "internalType": "uint256",
          "name": "ticketId",
          "type": "uint256"
        },
        {
          "internalType": "uint256",
          "name": "offerIndex",
          "type": "uint256"
        }
      ],
      "name": "acceptOffer",
      "outputs": [],
      "stateMutability": "nonpayable",
      "type": "function"
    },
    {
      "inputs": [
        {
          "internalType": "uint256",
          "name": "ticketId",
          "type": "uint256"
        },
        {
          "internalType": "uint256",
          "name": "quantity",
          "type": "uint256"
        }
      ],
      "name": "buyTicket",
      "outputs": [],
      "stateMutability": "payable",
      "type": "function"
    },
    {
      "inputs": [
        {
          "internalType": "string",
          "name": "name",
          "type": "string"
        },
        {
          "internalType": "string",
          "name": "location",
          "type": "string"
        },
        {
          "internalType": "uint256",
          "name": "price",
          "type": "uint256"
        },
        {
          "internalType": "uint256",
          "name": "quantity",
          "type": "uint256"
        },
        {
          "internalType": "bool",
          "name": "isNegotiable",
          "type": "bool"
        },
        {
          "internalType": "uint256",
          "name": "minOffer",
          "type": "uint256"
        }
      ],
      "name": "createTicket",
      "outputs": [],
      "stateMutability": "nonpayable",
      "type": "function"
    },
    {
      "inputs": [
        {
          "internalType": "uint256",
          "name": "ticketId",
          "type": "uint256"
        }
      ],
      "name": "getTicketOffers",
      "outputs": [
        {
          "components": [
            {
              "internalType": "address",
              "name": "buyer",
              "type": "address"
            },
            {
              "internalType": "uint256",
              "name": "offerPrice",
              "type": "uint256"
            }
          ],
          "internalType": "struct TicketSale.Offer[]",
          "name": "",
          "type": "tuple[]"
        }
      ],
      "stateMutability": "view",
      "type": "function"
    },
    {
      "inputs": [
        {
          "internalType": "address",
          "name": "user",
          "type": "address"
        }
      ],
      "name": "getUserTickets",
      "outputs": [
        {
          "internalType": "uint256[]",
          "name": "",
          "type": "uint256[]"
        }
      ],
      "stateMutability": "view",
      "type": "function"
    },
    {
      "inputs": [
        {
          "internalType": "uint256",
          "name": "ticketId",
          "type": "uint256"
        },
        {
          "internalType": "uint256",
          "name": "offerPrice",
          "type": "uint256"
        }
      ],
      "name": "makeOffer",
      "outputs": [],
      "stateMutability": "nonpayable",
      "type": "function"
    },
    {
      "inputs": [],
      "name": "nextTicketId",
      "outputs": [
        {
          "internalType": "uint256",
          "name": "",
          "type": "uint256"
        }
      ],
      "stateMutability": "view",
      "type": "function"
    },
    {
      "inputs": [
        {
          "internalType": "uint256",
          "name": "",
          "type": "uint256"
        },
        {
          "internalType": "uint256",
          "name": "",
          "type": "uint256"
        }
      ],
      "name": "ticketOffers",
      "outputs": [
        {
          "internalType": "address",
          "name": "buyer",
          "type": "address"
        },
        {
          "internalType": "uint256",
          "name": "offerPrice",
          "type": "uint256"
        }
      ],
      "stateMutability": "view",
      "type": "function"
    },
    {
      "inputs": [
        {
          "internalType": "uint256",
          "name": "",
          "type": "uint256"
        }
      ],
      "name": "tickets",
      "outputs": [
        {
          "internalType": "uint256",
          "name": "id",
          "type": "uint256"
        },
        {
          "internalType": "string",
          "name": "name",
          "type": "string"
        },
        {
          "internalType": "string",
          "name": "location",
          "type": "string"
        },
        {
          "internalType": "uint256",
          "name": "price",
          "type": "uint256"
        },
        {
          "internalType": "uint256",
          "name": "quantity",
          "type": "uint256"
        },
        {
          "internalType": "bool",
          "name": "isNegotiable",
          "type": "bool"
        },
        {
          "internalType": "uint256",
          "name": "minOffer",
          "type": "uint256"
        },
        {
          "internalType": "address",
          "name": "seller",
          "type": "address"
        },
        {
          "internalType": "bool",
          "name": "soldOut",
          "type": "bool"
        }
      ],
      "stateMutability": "view",
      "type": "function"
    },
    {
      "inputs": [
        {
          "internalType": "address",
          "name": "",
          "type": "address"
        },
        {
          "internalType": "uint256",
          "name": "",
          "type": "uint256"
        }
      ],
      "name": "userTickets",
      "outputs": [
        {
          "internalType": "uint256",
          "name": "",
          "type": "uint256"
        }
      ],
      "stateMutability": "view",
      "type": "function"
    }
  ],
  "bytecode": "0x60806040526001600055348015601457600080fd5b506123fe806100246000396000f3fe6080604052600436106100915760003560e01c80636031a52f116100595780636031a52f1461018657806381257bd5146101b157806396a4dc20146101da578063cf260baf14610217578063d4f4b27b1461025457610091565b80630484a22f1461009657806305b7cdd3146100d3578063298ec208146100fc578063419878221461011857806350b4471214610141575b600080fd5b3480156100a257600080fd5b506100bd60048036038101906100b891906112df565b610292565b6040516100ca91906113d4565b60405180910390f35b3480156100df57600080fd5b506100fa60048036038101906100f59190611422565b610329565b005b61011660048036038101906101119190611422565b61056b565b005b34801561012457600080fd5b5061013f600480360381019061013a91906115e0565b610809565b005b34801561014d57600080fd5b50610168600480360381019061016391906116a5565b610a99565b60405161017d9998979695949392919061177e565b60405180910390f35b34801561019257600080fd5b5061019b610c31565b6040516101a89190611819565b60405180910390f35b3480156101bd57600080fd5b506101d860048036038101906101d39190611422565b610c37565b005b3480156101e657600080fd5b5061020160048036038101906101fc91906116a5565b611109565b60405161020e9190611921565b60405180910390f35b34801561022357600080fd5b5061023e60048036038101906102399190611943565b6111db565b60405161024b9190611819565b60405180910390f35b34801561026057600080fd5b5061027b60048036038101906102769190611422565b61120c565b604051610289929190611983565b60405180910390f35b6060600360008373ffffffffffffffffffffffffffffffffffffffff1673ffffffffffffffffffffffffffffffffffffffff16815260200190815260200160002080548060200260200160405190810160405280929190818152602001828054801561031d57602002820191906000526020600020905b815481526020019060010190808311610309575b50505050509050919050565b60006001600084815260200190815260200160002090506000816000015403610387576040517f08c379a000000000000000000000000000000000000000000000000000000000815260040161037e906119f8565b60405180910390fd5b8060050160009054906101000a900460ff166103d8576040517f08c379a00000000000000000000000000000000000000000000000000000000081526004016103cf90611a64565b60405180910390fd5b8060070160149054906101000a900460ff161561042a576040517f08c379a000000000000000000000000000000000000000000000000000000000815260040161042190611ad0565b60405180910390fd5b8060060154821015610471576040517f08c379a000000000000000000000000000000000000000000000000000000000815260040161046890611b62565b60405180910390fd5b6002600084815260200190815260200160002060405180604001604052803373ffffffffffffffffffffffffffffffffffffffff16815260200184815250908060018154018082558091505060019003906000526020600020906002020160009091909190915060008201518160000160006101000a81548173ffffffffffffffffffffffffffffffffffffffff021916908373ffffffffffffffffffffffffffffffffffffffff1602179055506020820151816001015550507fbdf1e76c2ba2a5c85b93bf78678a4a3b06d63b18422612dac8d7d5249ed4671483338460405161055e93929190611b82565b60405180910390a1505050565b600060016000848152602001908152602001600020905060008160000154036105c9576040517f08c379a00000000000000000000000000000000000000000000000000000000081526004016105c0906119f8565b60405180910390fd5b8060070160149054906101000a900460ff161561061b576040517f08c379a000000000000000000000000000000000000000000000000000000000815260040161061290611ad0565b60405180910390fd5b8181600401541015610662576040517f08c379a000000000000000000000000000000000000000000000000000000000815260040161065990611c05565b60405180910390fd5b8181600301546106729190611c54565b34146106b3576040517f08c379a00000000000000000000000000000000000000000000000000000000081526004016106aa90611ce2565b60405180910390fd5b8060070160009054906101000a900473ffffffffffffffffffffffffffffffffffffffff1673ffffffffffffffffffffffffffffffffffffffff166108fc349081150290604051600060405180830381858888f1935050505015801561071d573d6000803e3d6000fd5b50818160040160008282546107329190611d02565b9250508190555060008160040154036107635760018160070160146101000a81548160ff0219169083151502179055505b600360003373ffffffffffffffffffffffffffffffffffffffff1673ffffffffffffffffffffffffffffffffffffffff1681526020019081526020016000208390806001815401808255809150506001900390600052602060002001600090919091909150557f913d09b391f64143215d9312fd7e8ecaa06001c646789c9d2109dc515bc34fad8333346040516107fc93929190611b82565b60405180910390a1505050565b6000831161084c576040517f08c379a000000000000000000000000000000000000000000000000000000000815260040161084390611da8565b60405180910390fd5b6000841161088f576040517f08c379a000000000000000000000000000000000000000000000000000000000815260040161088690611e14565b60405180910390fd5b81156108e5576000811180156108a55750838111155b6108e4576040517f08c379a00000000000000000000000000000000000000000000000000000000081526004016108db90611e80565b60405180910390fd5b5b604051806101200160405280600054815260200187815260200186815260200185815260200184815260200183151581526020018281526020013373ffffffffffffffffffffffffffffffffffffffff16815260200160001515815250600160008054815260200190815260200160002060008201518160000155602082015181600101908161097591906120ac565b50604082015181600201908161098b91906120ac565b50606082015181600301556080820151816004015560a08201518160050160006101000a81548160ff02191690831515021790555060c0820151816006015560e08201518160070160006101000a81548173ffffffffffffffffffffffffffffffffffffffff021916908373ffffffffffffffffffffffffffffffffffffffff1602179055506101008201518160070160146101000a81548160ff0219169083151502179055509050507f7b6cd147f96717bfe17a8de79390641f587e1d83137b69eb0b67297be667c524600054878787878733604051610a72979695949392919061217e565b60405180910390a1600080815480929190610a8c906121fb565b9190505550505050505050565b6001602052806000526040600020600091509050806000015490806001018054610ac290611ecf565b80601f0160208091040260200160405190810160405280929190818152602001828054610aee90611ecf565b8015610b3b5780601f10610b1057610100808354040283529160200191610b3b565b820191906000526020600020905b815481529060010190602001808311610b1e57829003601f168201915b505050505090806002018054610b5090611ecf565b80601f0160208091040260200160405190810160405280929190818152602001828054610b7c90611ecf565b8015610bc95780601f10610b9e57610100808354040283529160200191610bc9565b820191906000526020600020905b815481529060010190602001808311610bac57829003601f168201915b5050505050908060030154908060040154908060050160009054906101000a900460ff16908060060154908060070160009054906101000a900473ffffffffffffffffffffffffffffffffffffffff16908060070160149054906101000a900460ff16905089565b60005481565b60006001600084815260200190815260200160002090506000816000015403610c95576040517f08c379a0000000000000000000000000000000000000000000000000000000008152600401610c8c906119f8565b60405180910390fd5b3373ffffffffffffffffffffffffffffffffffffffff168160070160009054906101000a900473ffffffffffffffffffffffffffffffffffffffff1673ffffffffffffffffffffffffffffffffffffffff1614610d27576040517f08c379a0000000000000000000000000000000000000000000000000000000008152600401610d1e906122b5565b60405180910390fd5b6000600260008581526020019081526020016000208381548110610d4e57610d4d6122d5565b5b90600052602060002090600202016040518060400160405290816000820160009054906101000a900473ffffffffffffffffffffffffffffffffffffffff1673ffffffffffffffffffffffffffffffffffffffff1673ffffffffffffffffffffffffffffffffffffffff1681526020016001820154815250509050600073ffffffffffffffffffffffffffffffffffffffff16816000015173ffffffffffffffffffffffffffffffffffffffff1603610e3c576040517f08c379a0000000000000000000000000000000000000000000000000000000008152600401610e3390612350565b60405180910390fd5b8160070160009054906101000a900473ffffffffffffffffffffffffffffffffffffffff1673ffffffffffffffffffffffffffffffffffffffff166108fc82602001519081150290604051600060405180830381858888f19350505050158015610eaa573d6000803e3d6000fd5b5060036000826000015173ffffffffffffffffffffffffffffffffffffffff1673ffffffffffffffffffffffffffffffffffffffff1681526020019081526020016000208490806001815401808255809150506001900390600052602060002001600090919091909150556002600085815260200190815260200160002060016002600087815260200190815260200160002080549050610f4b9190611d02565b81548110610f5c57610f5b6122d5565b5b9060005260206000209060020201600260008681526020019081526020016000208481548110610f8f57610f8e6122d5565b5b90600052602060002090600202016000820160009054906101000a900473ffffffffffffffffffffffffffffffffffffffff168160000160006101000a81548173ffffffffffffffffffffffffffffffffffffffff021916908373ffffffffffffffffffffffffffffffffffffffff160217905550600182015481600101559050506002600085815260200190815260200160002080548061103457611033612370565b5b6001900381819060005260206000209060020201600080820160006101000a81549073ffffffffffffffffffffffffffffffffffffffff02191690556001820160009055505090558160040160008154809291906110919061239f565b919050555060008260040154036110c05760018260070160146101000a81548160ff0219169083151502179055505b7fea555ab99331ceac5051c58f17cc7b411b30241b0e28cb93a7d3a24c77a7a9a984826000015183602001516040516110fb93929190611b82565b60405180910390a150505050565b606060026000838152602001908152602001600020805480602002602001604051908101604052809291908181526020016000905b828210156111d057838290600052602060002090600202016040518060400160405290816000820160009054906101000a900473ffffffffffffffffffffffffffffffffffffffff1673ffffffffffffffffffffffffffffffffffffffff1673ffffffffffffffffffffffffffffffffffffffff1681526020016001820154815250508152602001906001019061113e565b505050509050919050565b600360205281600052604060002081815481106111f757600080fd5b90600052602060002001600091509150505481565b6002602052816000526040600020818154811061122857600080fd5b9060005260206000209060020201600091509150508060000160009054906101000a900473ffffffffffffffffffffffffffffffffffffffff16908060010154905082565b6000604051905090565b600080fd5b600080fd5b600073ffffffffffffffffffffffffffffffffffffffff82169050919050565b60006112ac82611281565b9050919050565b6112bc816112a1565b81146112c757600080fd5b50565b6000813590506112d9816112b3565b92915050565b6000602082840312156112f5576112f4611277565b5b6000611303848285016112ca565b91505092915050565b600081519050919050565b600082825260208201905092915050565b6000819050602082019050919050565b6000819050919050565b61134b81611338565b82525050565b600061135d8383611342565b60208301905092915050565b6000602082019050919050565b60006113818261130c565b61138b8185611317565b935061139683611328565b8060005b838110156113c75781516113ae8882611351565b97506113b983611369565b92505060018101905061139a565b5085935050505092915050565b600060208201905081810360008301526113ee8184611376565b905092915050565b6113ff81611338565b811461140a57600080fd5b50565b60008135905061141c816113f6565b92915050565b6000806040838503121561143957611438611277565b5b60006114478582860161140d565b92505060206114588582860161140d565b9150509250929050565b600080fd5b600080fd5b6000601f19601f8301169050919050565b7f4e487b7100000000000000000000000000000000000000000000000000000000600052604160045260246000fd5b6114b58261146c565b810181811067ffffffffffffffff821117156114d4576114d361147d565b5b80604052505050565b60006114e761126d565b90506114f382826114ac565b919050565b600067ffffffffffffffff8211156115135761151261147d565b5b61151c8261146c565b9050602081019050919050565b82818337600083830152505050565b600061154b611546846114f8565b6114dd565b90508281526020810184848401111561156757611566611467565b5b611572848285611529565b509392505050565b600082601f83011261158f5761158e611462565b5b813561159f848260208601611538565b91505092915050565b60008115159050919050565b6115bd816115a8565b81146115c857600080fd5b50565b6000813590506115da816115b4565b92915050565b60008060008060008060c087890312156115fd576115fc611277565b5b600087013567ffffffffffffffff81111561161b5761161a61127c565b5b61162789828a0161157a565b965050602087013567ffffffffffffffff8111156116485761164761127c565b5b61165489828a0161157a565b955050604061166589828a0161140d565b945050606061167689828a0161140d565b935050608061168789828a016115cb565b92505060a061169889828a0161140d565b9150509295509295509295565b6000602082840312156116bb576116ba611277565b5b60006116c98482850161140d565b91505092915050565b6116db81611338565b82525050565b600081519050919050565b600082825260208201905092915050565b60005b8381101561171b578082015181840152602081019050611700565b60008484015250505050565b6000611732826116e1565b61173c81856116ec565b935061174c8185602086016116fd565b6117558161146c565b840191505092915050565b611769816115a8565b82525050565b611778816112a1565b82525050565b600061012082019050611794600083018c6116d2565b81810360208301526117a6818b611727565b905081810360408301526117ba818a611727565b90506117c960608301896116d2565b6117d660808301886116d2565b6117e360a0830187611760565b6117f060c08301866116d2565b6117fd60e083018561176f565b61180b610100830184611760565b9a9950505050505050505050565b600060208201905061182e60008301846116d2565b92915050565b600081519050919050565b600082825260208201905092915050565b6000819050602082019050919050565b611869816112a1565b82525050565b6040820160008201516118856000850182611860565b5060208201516118986020850182611342565b50505050565b60006118aa838361186f565b60408301905092915050565b6000602082019050919050565b60006118ce82611834565b6118d8818561183f565b93506118e383611850565b8060005b838110156119145781516118fb888261189e565b9750611906836118b6565b9250506001810190506118e7565b5085935050505092915050565b6000602082019050818103600083015261193b81846118c3565b905092915050565b6000806040838503121561195a57611959611277565b5b6000611968858286016112ca565b92505060206119798582860161140d565b9150509250929050565b6000604082019050611998600083018561176f565b6119a560208301846116d2565b9392505050565b7f5469636b657420646f6573206e6f742065786973740000000000000000000000600082015250565b60006119e26015836116ec565b91506119ed826119ac565b602082019050919050565b60006020820190508181036000830152611a11816119d5565b9050919050565b7f5469636b6574206973206e6f74206e65676f746961626c650000000000000000600082015250565b6000611a4e6018836116ec565b9150611a5982611a18565b602082019050919050565b60006020820190508181036000830152611a7d81611a41565b9050919050565b7f5469636b657420697320736f6c64206f75740000000000000000000000000000600082015250565b6000611aba6012836116ec565b9150611ac582611a84565b602082019050919050565b60006020820190508181036000830152611ae981611aad565b9050919050565b7f4f666665722069732062656c6f77206d696e696d756d206f666665722070726960008201527f6365000000000000000000000000000000000000000000000000000000000000602082015250565b6000611b4c6022836116ec565b9150611b5782611af0565b604082019050919050565b60006020820190508181036000830152611b7b81611b3f565b9050919050565b6000606082019050611b9760008301866116d2565b611ba4602083018561176f565b611bb160408301846116d2565b949350505050565b7f4e6f7420656e6f756768207469636b65747320617661696c61626c6500000000600082015250565b6000611bef601c836116ec565b9150611bfa82611bb9565b602082019050919050565b60006020820190508181036000830152611c1e81611be2565b9050919050565b7f4e487b7100000000000000000000000000000000000000000000000000000000600052601160045260246000fd5b6000611c5f82611338565b9150611c6a83611338565b9250828202611c7881611338565b91508282048414831517611c8f57611c8e611c25565b5b5092915050565b7f496e636f7272656374207061796d656e7420616d6f756e740000000000000000600082015250565b6000611ccc6018836116ec565b9150611cd782611c96565b602082019050919050565b60006020820190508181036000830152611cfb81611cbf565b9050919050565b6000611d0d82611338565b9150611d1883611338565b9250828203905081811115611d3057611d2f611c25565b5b92915050565b7f5175616e74697479206d7573742062652067726561746572207468616e207a6560008201527f726f000000000000000000000000000000000000000000000000000000000000602082015250565b6000611d926022836116ec565b9150611d9d82611d36565b604082019050919050565b60006020820190508181036000830152611dc181611d85565b9050919050565b7f5072696365206d7573742062652067726561746572207468616e207a65726f00600082015250565b6000611dfe601f836116ec565b9150611e0982611dc8565b602082019050919050565b60006020820190508181036000830152611e2d81611df1565b9050919050565b7f4d696e696d756d206f66666572206d7573742062652076616c69640000000000600082015250565b6000611e6a601b836116ec565b9150611e7582611e34565b602082019050919050565b60006020820190508181036000830152611e9981611e5d565b9050919050565b7f4e487b7100000000000000000000000000000000000000000000000000000000600052602260045260246000fd5b60006002820490506001821680611ee757607f821691505b602082108103611efa57611ef9611ea0565b5b50919050565b60008190508160005260206000209050919050565b60006020601f8301049050919050565b600082821b905092915050565b600060088302611f627fffffffffffffffffffffffffffffffffffffffffffffffffffffffffffffffff82611f25565b611f6c8683611f25565b95508019841693508086168417925050509392505050565b6000819050919050565b6000611fa9611fa4611f9f84611338565b611f84565b611338565b9050919050565b6000819050919050565b611fc383611f8e565b611fd7611fcf82611fb0565b848454611f32565b825550505050565b600090565b611fec611fdf565b611ff7818484611fba565b505050565b5b8181101561201b57612010600082611fe4565b600181019050611ffd565b5050565b601f8211156120605761203181611f00565b61203a84611f15565b81016020851015612049578190505b61205d61205585611f15565b830182611ffc565b50505b505050565b600082821c905092915050565b600061208360001984600802612065565b1980831691505092915050565b600061209c8383612072565b9150826002028217905092915050565b6120b5826116e1565b67ffffffffffffffff8111156120ce576120cd61147d565b5b6120d88254611ecf565b6120e382828561201f565b600060209050601f8311600181146121165760008415612104578287015190505b61210e8582612090565b865550612176565b601f19841661212486611f00565b60005b8281101561214c57848901518255600182019150602085019450602081019050612127565b868310156121695784890151612165601f891682612072565b8355505b6001600288020188555050505b505050505050565b600060e082019050612193600083018a6116d2565b81810360208301526121a58189611727565b905081810360408301526121b98188611727565b90506121c860608301876116d2565b6121d560808301866116d2565b6121e260a0830185611760565b6121ef60c083018461176f565b98975050505050505050565b600061220682611338565b91507fffffffffffffffffffffffffffffffffffffffffffffffffffffffffffffffff820361223857612237611c25565b5b600182019050919050565b7f4f6e6c79207468652073656c6c65722063616e2061636365707420616e206f6660008201527f6665720000000000000000000000000000000000000000000000000000000000602082015250565b600061229f6023836116ec565b91506122aa82612243565b604082019050919050565b600060208201905081810360008301526122ce81612292565b9050919050565b7f4e487b7100000000000000000000000000000000000000000000000000000000600052603260045260246000fd5b7f4f6666657220646f6573206e6f74206578697374000000000000000000000000600082015250565b600061233a6014836116ec565b915061234582612304565b602082019050919050565b600060208201905081810360008301526123698161232d565b9050919050565b7f4e487b7100000000000000000000000000000000000000000000000000000000600052603160045260246000fd5b60006123aa82611338565b9150600082036123bd576123bc611c25565b5b60018203905091905056fea26469706673582212200745582ace234d201c406897c5fd997d2bb60d5a4a552ff1f206a064a8b969c764736f6c634300081b0033",
  "linkReferences": {},
  "deployedLinkReferences": {}
}